{
  "contractName": "ChainList",
  "abi": [
    {
      "constant": true,
      "inputs": [
        {
          "name": "",
          "type": "uint256"
        }
      ],
      "name": "articles",
      "outputs": [
        {
          "name": "id",
          "type": "uint256"
        },
        {
          "name": "seller",
          "type": "address"
        },
        {
          "name": "buyer",
          "type": "address"
        },
        {
          "name": "name",
          "type": "string"
        },
        {
          "name": "description",
          "type": "string"
        },
        {
          "name": "price",
          "type": "uint256"
        }
      ],
      "payable": false,
      "stateMutability": "view",
      "type": "function",
      "signature": "0xedcfafe6"
    },
    {
      "anonymous": false,
      "inputs": [
        {
          "indexed": true,
          "name": "_id",
          "type": "uint256"
        },
        {
          "indexed": true,
          "name": "_seller",
          "type": "address"
        },
        {
          "indexed": false,
          "name": "_name",
          "type": "string"
        },
        {
          "indexed": false,
          "name": "_price",
          "type": "uint256"
        }
      ],
      "name": "LogSellArticle",
      "type": "event",
      "signature": "0xe2ebb0c522a8b90a93f45a5dfd3c0e0516b81519fdf199efe51c474642fe8cec"
    },
    {
      "anonymous": false,
      "inputs": [
        {
          "indexed": true,
          "name": "_id",
          "type": "uint256"
        },
        {
          "indexed": true,
          "name": "_seller",
          "type": "address"
        },
        {
          "indexed": true,
          "name": "_buyer",
          "type": "address"
        },
        {
          "indexed": false,
          "name": "_name",
          "type": "string"
        },
        {
          "indexed": false,
          "name": "_price",
          "type": "uint256"
        }
      ],
      "name": "LogBuyArticle",
      "type": "event",
      "signature": "0x5d28bc06e6f0c45405abfe77bd77236c767f9bd9d044ae2d954a415a2b4823e0"
    },
    {
      "constant": false,
      "inputs": [
        {
          "name": "_name",
          "type": "string"
        },
        {
          "name": "_description",
          "type": "string"
        },
        {
          "name": "_price",
          "type": "uint256"
        }
      ],
      "name": "sellArticle",
      "outputs": [],
      "payable": false,
      "stateMutability": "nonpayable",
      "type": "function",
      "signature": "0xd2609515"
    },
    {
      "constant": true,
      "inputs": [],
      "name": "getNumberOfArticles",
      "outputs": [
        {
          "name": "",
          "type": "uint256"
        }
      ],
      "payable": false,
      "stateMutability": "view",
      "type": "function",
      "signature": "0x89da85d3"
    },
    {
      "constant": true,
      "inputs": [],
      "name": "getArticlesForSale",
      "outputs": [
        {
          "name": "",
          "type": "uint256[]"
        }
      ],
      "payable": false,
      "stateMutability": "view",
      "type": "function",
      "signature": "0x7f6be3da"
    },
    {
      "constant": false,
      "inputs": [
        {
          "name": "_id",
          "type": "uint256"
        }
      ],
      "name": "buyArticle",
      "outputs": [],
      "payable": true,
      "stateMutability": "payable",
      "type": "function",
      "signature": "0x1cc4baa8"
    }
  ],
  "bytecode": "0x608060405234801561001057600080fd5b50610d73806100206000396000f3fe60806040526004361061006d576000357c0100000000000000000000000000000000000000000000000000000000900463ffffffff1680631cc4baa8146100725780637f6be3da146100a057806389da85d31461010c578063d260951514610137578063edcfafe6146102a0575b600080fd5b61009e6004803603602081101561008857600080fd5b8101908080359060200190929190505050610434565b005b3480156100ac57600080fd5b506100b5610739565b6040518080602001828103825283818151815260200191508051906020019060200280838360005b838110156100f85780820151818401526020810190506100dd565b505050509050019250505060405180910390f35b34801561011857600080fd5b506101216108c7565b6040518082815260200191505060405180910390f35b34801561014357600080fd5b5061029e6004803603606081101561015a57600080fd5b810190808035906020019064010000000081111561017757600080fd5b82018360208201111561018957600080fd5b803590602001918460018302840111640100000000831117156101ab57600080fd5b91908080601f016020809104026020016040519081016040528093929190818152602001838380828437600081840152601f19601f8201169050808301925050505050505091929192908035906020019064010000000081111561020e57600080fd5b82018360208201111561022057600080fd5b8035906020019184600183028401116401000000008311171561024257600080fd5b91908080601f016020809104026020016040519081016040528093929190818152602001838380828437600081840152601f19601f820116905080830192505050505050509192919290803590602001909291905050506108d1565b005b3480156102ac57600080fd5b506102d9600480360360208110156102c357600080fd5b8101908080359060200190929190505050610af6565b604051808781526020018673ffffffffffffffffffffffffffffffffffffffff1673ffffffffffffffffffffffffffffffffffffffff1681526020018573ffffffffffffffffffffffffffffffffffffffff1673ffffffffffffffffffffffffffffffffffffffff1681526020018060200180602001848152602001838103835286818151815260200191508051906020019080838360005b8381101561038d578082015181840152602081019050610372565b50505050905090810190601f1680156103ba5780820380516001836020036101000a031916815260200191505b50838103825285818151815260200191508051906020019080838360005b838110156103f35780820151818401526020810190506103d8565b50505050905090810190601f1680156104205780820380516001836020036101000a031916815260200191505b509850505050505050505060405180910390f35b600060015411151561044557600080fd5b60008111801561045757506001548111155b151561046257600080fd5b60008060008381526020019081526020016000209050600073ffffffffffffffffffffffffffffffffffffffff168160020160009054906101000a900473ffffffffffffffffffffffffffffffffffffffff1673ffffffffffffffffffffffffffffffffffffffff161415156104d757600080fd5b8060010160009054906101000a900473ffffffffffffffffffffffffffffffffffffffff1673ffffffffffffffffffffffffffffffffffffffff163373ffffffffffffffffffffffffffffffffffffffff161415151561053657600080fd5b80600501543414151561054857600080fd5b338160020160006101000a81548173ffffffffffffffffffffffffffffffffffffffff021916908373ffffffffffffffffffffffffffffffffffffffff1602179055508060010160009054906101000a900473ffffffffffffffffffffffffffffffffffffffff1673ffffffffffffffffffffffffffffffffffffffff166108fc349081150290604051600060405180830381858888f193505050501580156105f5573d6000803e3d6000fd5b508060020160009054906101000a900473ffffffffffffffffffffffffffffffffffffffff1673ffffffffffffffffffffffffffffffffffffffff168160010160009054906101000a900473ffffffffffffffffffffffffffffffffffffffff1673ffffffffffffffffffffffffffffffffffffffff16837f5d28bc06e6f0c45405abfe77bd77236c767f9bd9d044ae2d954a415a2b4823e084600301856005015460405180806020018381526020018281038252848181546001816001161561010002031660029004815260200191508054600181600116156101000203166002900480156107265780601f106106fb57610100808354040283529160200191610726565b820191906000526020600020905b81548152906001019060200180831161070957829003601f168201915b5050935050505060405180910390a45050565b60608060015460405190808252806020026020018201604052801561076d5781602001602082028038833980820191505090505b50905060008090506000600190505b6001548111151561083957600073ffffffffffffffffffffffffffffffffffffffff1660008083815260200190815260200160002060020160009054906101000a900473ffffffffffffffffffffffffffffffffffffffff1673ffffffffffffffffffffffffffffffffffffffff16141561082c5760008082815260200190815260200160002060000154838381518110151561081557fe5b906020019060200201818152505081806001019250505b808060010191505061077c565b5060608160405190808252806020026020018201604052801561086b5781602001602082028038833980820191505090505b50905060008090505b828110156108bd57838181518110151561088a57fe5b9060200190602002015182828151811015156108a257fe5b90602001906020020181815250508080600101915050610874565b5080935050505090565b6000600154905090565b60016000815480929190600101919050555060c06040519081016040528060015481526020013373ffffffffffffffffffffffffffffffffffffffff168152602001600073ffffffffffffffffffffffffffffffffffffffff1681526020018481526020018381526020018281525060008060015481526020019081526020016000206000820151816000015560208201518160010160006101000a81548173ffffffffffffffffffffffffffffffffffffffff021916908373ffffffffffffffffffffffffffffffffffffffff16021790555060408201518160020160006101000a81548173ffffffffffffffffffffffffffffffffffffffff021916908373ffffffffffffffffffffffffffffffffffffffff1602179055506060820151816003019080519060200190610a08929190610ca2565b506080820151816004019080519060200190610a25929190610ca2565b5060a082015181600501559050503373ffffffffffffffffffffffffffffffffffffffff166001547fe2ebb0c522a8b90a93f45a5dfd3c0e0516b81519fdf199efe51c474642fe8cec85846040518080602001838152602001828103825284818151815260200191508051906020019080838360005b83811015610ab6578082015181840152602081019050610a9b565b50505050905090810190601f168015610ae35780820380516001836020036101000a031916815260200191505b50935050505060405180910390a3505050565b60006020528060005260406000206000915090508060000154908060010160009054906101000a900473ffffffffffffffffffffffffffffffffffffffff16908060020160009054906101000a900473ffffffffffffffffffffffffffffffffffffffff1690806003018054600181600116156101000203166002900480601f016020809104026020016040519081016040528092919081815260200182805460018160011615610100020316600290048015610bf45780601f10610bc957610100808354040283529160200191610bf4565b820191906000526020600020905b815481529060010190602001808311610bd757829003601f168201915b505050505090806004018054600181600116156101000203166002900480601f016020809104026020016040519081016040528092919081815260200182805460018160011615610100020316600290048015610c925780601f10610c6757610100808354040283529160200191610c92565b820191906000526020600020905b815481529060010190602001808311610c7557829003601f168201915b5050505050908060050154905086565b828054600181600116156101000203166002900490600052602060002090601f016020900481019282601f10610ce357805160ff1916838001178555610d11565b82800160010185558215610d11579182015b82811115610d10578251825591602001919060010190610cf5565b5b509050610d1e9190610d22565b5090565b610d4491905b80821115610d40576000816000905550600101610d28565b5090565b9056fea165627a7a7230582046b4255542d863ea2a4d28fe8993dddb401129c5e4fe20ec8d37b85364eac9c70029",
  "source": "pragma solidity ^0.5.0;\r\n\r\ncontract ChainList {\r\n  // custom types\r\n  struct Article {\r\n    uint id;\r\n    address payable seller;\r\n    address payable buyer;\r\n    string name;\r\n    string description;\r\n    uint256 price;\r\n  }\r\n\r\n  // state variables\r\n  mapping (uint => Article) public articles;\r\n  uint articleCounter;\r\n\r\n  // events\r\n  event LogSellArticle(\r\n    uint indexed _id,\r\n    address indexed _seller,\r\n    string _name,\r\n    uint256 _price\r\n  );\r\n  event LogBuyArticle(\r\n    uint indexed _id,\r\n    address indexed _seller,\r\n    address indexed _buyer,\r\n    string _name,\r\n    uint256 _price\r\n  );\r\n\r\n  // sell an article\r\n  function sellArticle(string  memory _name, string memory _description, uint256  _price) public {\r\n    // a new article\r\n    articleCounter++;\r\n\r\n    // store this article\r\n    articles[articleCounter] = Article(\r\n      articleCounter,\r\n      msg.sender,\r\n      address(0),\r\n      _name,\r\n      _description,\r\n      _price\r\n    );\r\n\r\n    emit LogSellArticle(articleCounter, msg.sender, _name, _price);\r\n  }\r\n\r\n  // fetch the number of articles in the contract\r\n  function getNumberOfArticles() public view returns (uint) {\r\n    return articleCounter;\r\n  }\r\n\r\n  // fetch and return all article IDs for articles still for sale\r\n  function getArticlesForSale() public view returns (uint[] memory) {\r\n    // prepare output array\r\n    uint[] memory articleIds = new uint[](articleCounter);\r\n\r\n    uint numberOfArticlesForSale = 0;\r\n    // iterate over articles\r\n    for(uint i = 1; i <= articleCounter;  i++) {\r\n      // keep the ID if the article is still for sale\r\n      if(articles[i].buyer == address(0)) {\r\n        articleIds[numberOfArticlesForSale] = articles[i].id;\r\n        numberOfArticlesForSale++;\r\n      }\r\n    }\r\n\r\n    // copy the articleIds array into a smaller forSale array\r\n    uint[] memory forSale = new uint[](numberOfArticlesForSale);\r\n    for(uint j = 0; j < numberOfArticlesForSale; j++) {\r\n      forSale[j] = articleIds[j];\r\n    }\r\n    return forSale;\r\n  }\r\n\r\n  // buy an article\r\n  function buyArticle(uint _id) payable public {\r\n    // we check whether there is an article for sale\r\n    require(articleCounter > 0);\r\n\r\n    // we check that the article exists\r\n    require(_id > 0 && _id <= articleCounter);\r\n\r\n    // we retrieve the article\r\n    Article storage article = articles[_id];\r\n\r\n    // we check that the article has not been sold yet\r\n    require(article.buyer == address(0));\r\n\r\n    // we don't allow the seller to buy his own article\r\n    require(msg.sender != article.seller);\r\n\r\n    // we check that the value sent corresponds to the price of the article\r\n    require(msg.value == article.price);\r\n\r\n    // keep buyer's information\r\n    article.buyer = msg.sender;\r\n\r\n    // the buyer can pay the seller\r\n    article.seller.transfer(msg.value);\r\n\r\n    // trigger the event\r\n   emit  LogBuyArticle(_id, article.seller, article.buyer, article.name, article.price);\r\n  }\r\n}\r\n",
  "sourcePath": "C:/Users/hp/Desktop/Final/contracts/ChainList.sol",
  "compiler": {
    "name": "solc",
    "version": "0.5.0+commit.1d4f565a.Emscripten.clang"
  },
  "schemaVersion": "3.0.5",
  "updatedAt": "2019-03-26T11:43:50.049Z",
  "devdoc": {
    "methods": {}
  },
  "userdoc": {
    "methods": {}
  }
}